{"page":1,"totalPages":1,"itemsOnPage":1000,"address":"2c9ca70d0039a873a7dbddd58056b31cb440cb2e4d832caa2e9fec2a7879c629","balance":"0","totalReceived":"0","totalSent":"0","unconfirmedBalance":"0","unconfirmedTxs":0,"txs":0,"transactions":[{"txid":"871cef4d69f27b1cedd37943c7b454669a17158f52067e88cbec8d29dd77935a","version":2,"lockTime":898480,"vin":[{"txid":"2c9ca70d0039a873a7dbddd58056b31cb440cb2e4d832caa2e9fec2a7879c629","sequence":4294967294,"n":0,"addresses":["bitcoincash:pwfavrpeyxjlrxhgfa4kd96a4mdm2f5cpd5w5xcsmyfz4vyluaj6zzdp7pypa"],"isAddress":true,"value":"58143","hex":"2029c679782aec9f2eaa2c834d2ecb40b41cb35680d5dddba773a839000da79c2c1469adfe1c36e6372afd568a00384b233ed402b979014803cf21f903059842514ccb14ee8fd35e68ecc490b8cfc1e82df0706d6d95c3980489a29b68037fd30003d721f9031c98425579009c63537ab17500cc537a9d0376a914537a7e0288ac7e00cd8777777767557a519d00cc537a9d0376a914587a7e0288ac7e00cd88044054890093547a0440548900937b0480a8120193557a0480a81201937c9490765a9776559f636e947b757c676e945a937b757c68785a967b02680194905a96537a547a94907b78a47b7ba47ca3547aa1690376a914537a7e0288ac7e51cd8851d1537a8851cc02e8039c777768"}],"vout":[{"value":"54143","n":0,"hex":"76a91469adfe1c36e6372afd568a00384b233ed402b97988ac","addresses":["bitcoincash:qp56mlsuxmnrw2ha269qqwztyvldgq4e0ye6fqvx9s"],"isAddress":true},{"value":"1000","n":1,"hex":"ef29c679782aec9f2eaa2c834d2ecb40b41cb35680d5dddba773a839000da79c2c60281c98420000000000000000000000000000000000820800000000000000000000000000000000000076a914ee8fd35e68ecc490b8cfc1e82df0706d6d95c39888ac","addresses":["bitcoincash:qrhgl567drkvfy9celq7st0swpkkm9wrnqzezhvy4g"],"isAddress":true,"tokenData":{"category":"2c9ca70d0039a873a7dbddd58056b31cb440cb2e4d832caa2e9fec2a7879c629","amount":"0","nft":{"capability":"none","commitment":"1c984200000000000000000000000000000000008208000000000000000000000000000000000000"}}}],"blockHash":"000000000000000000a245cbcc159251ddb4f8e53388480a5608ddad51a7c200","blockHeight":898481,"confirmations":50583,"blockTime":1747376685,"size":466,"value":"55143","valueIn":"58143","fees":"3000","hex":"020000000129c679782aec9f2eaa2c834d2ecb40b41cb35680d5dddba773a839000da79c2c00000000fd0e012029c679782aec9f2eaa2c834d2ecb40b41cb35680d5dddba773a839000da79c2c1469adfe1c36e6372afd568a00384b233ed402b979014803cf21f903059842514ccb14ee8fd35e68ecc490b8cfc1e82df0706d6d95c3980489a29b68037fd30003d721f9031c98425579009c63537ab17500cc537a9d0376a914537a7e0288ac7e00cd8777777767557a519d00cc537a9d0376a914587a7e0288ac7e00cd88044054890093547a0440548900937b0480a8120193557a0480a81201937c9490765a9776559f636e947b757c676e945a937b757c68785a967b02680194905a96537a547a94907b78a47b7ba47ca3547aa1690376a914537a7e0288ac7e51cd8851d1537a8851cc02e8039c777768feffffff027fd30000000000001976a91469adfe1c36e6372afd568a00384b233ed402b97988ace80300000000000064ef29c679782aec9f2eaa2c834d2ecb40b41cb35680d5dddba773a839000da79c2c60281c98420000000000000000000000000000000000820800000000000000000000000000000000000076a914ee8fd35e68ecc490b8cfc1e82df0706d6d95c39888acb0b50d00"}]}
