{"page":1,"totalPages":1,"itemsOnPage":1000,"address":"0b60d068047f0a7d086b993be1059603660bd170af1a4730d0e9726765bf5afd","balance":"0","totalReceived":"0","totalSent":"0","unconfirmedBalance":"0","unconfirmedTxs":0,"txs":0,"transactions":[{"txid":"9fe1b861d2a62fb352434e3b4aa437a93107089c975b41ff1dc0857f6150ee93","version":1,"lockTime":946516,"vin":[{"txid":"292caa178ac62f3a5c6fa3d5d8576e9b8348c73e3f2b3778527d8b1349957f5c","sequence":4294967294,"n":0,"addresses":["bitcoincash:qr79xykd0ud00ka2yhwjk72s72wzys949szyun0xzt"],"isAddress":true,"value":"10000","hex":"4121a9da9057a9859e91cbb32603e9b4e5f985b3a6596c30598441224466120b0e050487463e73bb219f70ff13ba80410104d5e2fa501750c3123898843f4fe21641210337470bab62bbb2460e66cfa40ba0cc827452dbe2fe60ff768a63c3091ad6fa65"},{"txid":"6a73fa18433bc28e69f11572b4d1ab25bb7725b11cc20add8ef2ff078fbf615d","vout":1,"sequence":4294967294,"n":1,"addresses":["bitcoincash:qqwff4qqga89j2yyyvdwtdxmy77njfhrygj77anl7u"],"isAddress":true,"value":"800","hex":"41d48c88dc1e0f8ab44512af17a8366480d113324552441248642734bcf2e96a944f56a655b56aeda52324613fe17e065e283c0b1f963f83b5b0d0e9724c57767d412102a94e22b8ffc944ba45d7350e0148bf2d1eedae4802fc7b52ae5b484553c6e27d","tokenData":{"category":"0b60d068047f0a7d086b993be1059603660bd170af1a4730d0e9726765bf5afd","amount":"1000000"}}],"vout":[{"value":"800","n":0,"hex":"effd5abf656772e9d030471aaf70d10b66039605e13b996b087d0a7f0468d0600b10fe40420f0076a914000000000000000000000000000000000000000088ac","addresses":["bitcoincash:qqqqqqqqqqqqqqqqqqqqqqqqqqqqqqqqqqfnhks603"],"isAddress":true,"tokenData":{"category":"0b60d068047f0a7d086b993be1059603660bd170af1a4730d0e9726765bf5afd","amount":"1000000"}},{"value":"6808","n":1,"spent":true,"hex":"76a914e241c26be2f33de1bad2a6a19dd4c3ebeb0e62f788ac","addresses":["bitcoincash:qr3yrsntutenmcd662n2r8w5c047krnz7ulfxrczlg"],"isAddress":true}],"blockHash":"000000000000000000de7305a94a9b00b49280a3194febd3b40f0b477930e257","blockHeight":946517,"confirmations":2545,"blockTime":1776035822,"size":399,"value":"7608","valueIn":"10800","fees":"3192","hex":"01000000025c7f9549138b7d5278372b3f3ec748839b6e57d8d5a36f5c3a2fc68a17aa2c2900000000644121a9da9057a9859e91cbb32603e9b4e5f985b3a6596c30598441224466120b0e050487463e73bb219f70ff13ba80410104d5e2fa501750c3123898843f4fe21641210337470bab62bbb2460e66cfa40ba0cc827452dbe2fe60ff768a63c3091ad6fa65feffffff5d61bf8f07fff28edd0ac21cb12577bb25abd1b47215f1698ec23b4318fa736a010000006441d48c88dc1e0f8ab44512af17a8366480d113324552441248642734bcf2e96a944f56a655b56aeda52324613fe17e065e283c0b1f963f83b5b0d0e9724c57767d412102a94e22b8ffc944ba45d7350e0148bf2d1eedae4802fc7b52ae5b484553c6e27dfeffffff02200300000000000040effd5abf656772e9d030471aaf70d10b66039605e13b996b087d0a7f0468d0600b10fe40420f0076a914000000000000000000000000000000000000000088ac981a0000000000001976a914e241c26be2f33de1bad2a6a19dd4c3ebeb0e62f788ac54710e00"},{"txid":"6a73fa18433bc28e69f11572b4d1ab25bb7725b11cc20add8ef2ff078fbf615d","version":1,"lockTime":920541,"vin":[{"txid":"0b60d068047f0a7d086b993be1059603660bd170af1a4730d0e9726765bf5afd","sequence":4294967294,"n":0,"addresses":["bitcoincash:qrey7npxwt2cdtmzxu6v3etc78h5gxv4tcd0g6cq4n"],"isAddress":true,"value":"269873","hex":"41e02b5cfd718f79bad4a0db75539294227f58f1c7437c2c89be393e1444ed9a36fc7087d56663b904b195c421f61b027c32769267937c077cf9c46862fc777fa7412103aec4a4d00d645c316efb11b932710a2bc0529a4bc6ddeb58df89ef72267528b6"}],"vout":[{"value":"266751","n":0,"spent":true,"hex":"76a91410b736332c991fbc477fd519dd61c852be6556b288ac","addresses":["bitcoincash:qqgtwd3n9jv3l0z80l23nhtpepftue2kkgjn9lwakz"],"isAddress":true},{"value":"800","n":1,"spent":true,"hex":"effd5abf656772e9d030471aaf70d10b66039605e13b996b087d0a7f0468d0600b10fe40420f0076a9141c94d400474e592884231ae5b4db27bd3926e32288ac","addresses":["bitcoincash:qqwff4qqga89j2yyyvdwtdxmy77njfhrygj77anl7u"],"isAddress":true,"tokenData":{"category":"0b60d068047f0a7d086b993be1059603660bd170af1a4730d0e9726765bf5afd","amount":"1000000"}}],"blockHash":"0000000000000000000f7fdf3b3098057b3524209d6903131d673b78873772b8","blockHeight":920542,"confirmations":28520,"blockTime":1760501772,"size":258,"value":"267551","valueIn":"269873","fees":"2322","hex":"0100000001fd5abf656772e9d030471aaf70d10b66039605e13b996b087d0a7f0468d0600b000000006441e02b5cfd718f79bad4a0db75539294227f58f1c7437c2c89be393e1444ed9a36fc7087d56663b904b195c421f61b027c32769267937c077cf9c46862fc777fa7412103aec4a4d00d645c316efb11b932710a2bc0529a4bc6ddeb58df89ef72267528b6feffffff02ff110400000000001976a91410b736332c991fbc477fd519dd61c852be6556b288ac200300000000000040effd5abf656772e9d030471aaf70d10b66039605e13b996b087d0a7f0468d0600b10fe40420f0076a9141c94d400474e592884231ae5b4db27bd3926e32288acdd0b0e00"}]}
